{"contracts/Will.sol":{"Will":{"abi":[{"inputs":[],"stateMutability":"payable","type":"constructor"},{"inputs":[],"name":"hasDeceased","outputs":[],"stateMutability":"nonpayable","type":"function"}],"evm":{"bytecode":{"linkReferences":{},"object":"6080604052600080546001600160a01b03191633179055346001556101a8806100296000396000f3fe608060405234801561001057600080fd5b506004361061002b5760003560e01c8063eddcca9914610030575b600080fd5b61003861003a565b005b6000546001600160a01b0316331461005157600080fd5b6002805460ff19166001179055610066610068565b565b60025460ff16151560011461007c57600080fd5b60005b600354811015610130576003818154811061009c5761009c610133565b6000918252602082200154600380546001600160a01b03909216926108fc9260049290869081106100cf576100cf610133565b60009182526020808320909101546001600160a01b03168352820192909252604090810182205490518115909302929091818181858888f1935050505015801561011d573d6000803e3d6000fd5b508061012881610149565b91505061007f565b50565b634e487b7160e01b600052603260045260246000fd5b600060001982141561016b57634e487b7160e01b600052601160045260246000fd5b506001019056fea2646970667358221220a2b54d6e01a33027f2ad72585ee672ef5d47df94516018bd4453830f9698d99864736f6c63430008090033","opcodes":"PUSH1 0x80 PUSH1 0x40 MSTORE PUSH1 0x0 DUP1 SLOAD PUSH1 0x1 PUSH1 0x1 PUSH1 0xA0 SHL SUB NOT AND CALLER OR SWAP1 SSTORE CALLVALUE PUSH1 0x1 SSTORE PUSH2 0x1A8 DUP1 PUSH2 0x29 PUSH1 0x0 CODECOPY PUSH1 0x0 RETURN INVALID PUSH1 0x80 PUSH1 0x40 MSTORE CALLVALUE DUP1 ISZERO PUSH2 0x10 JUMPI PUSH1 0x0 DUP1 REVERT JUMPDEST POP PUSH1 0x4 CALLDATASIZE LT PUSH2 0x2B JUMPI PUSH1 0x0 CALLDATALOAD PUSH1 0xE0 SHR DUP1 PUSH4 0xEDDCCA99 EQ PUSH2 0x30 JUMPI JUMPDEST PUSH1 0x0 DUP1 REVERT JUMPDEST PUSH2 0x38 PUSH2 0x3A JUMP JUMPDEST STOP JUMPDEST PUSH1 0x0 SLOAD PUSH1 0x1 PUSH1 0x1 PUSH1 0xA0 SHL SUB AND CALLER EQ PUSH2 0x51 JUMPI PUSH1 0x0 DUP1 REVERT JUMPDEST PUSH1 0x2 DUP1 SLOAD PUSH1 0xFF NOT AND PUSH1 0x1 OR SWAP1 SSTORE PUSH2 0x66 PUSH2 0x68 JUMP JUMPDEST JUMP JUMPDEST PUSH1 0x2 SLOAD PUSH1 0xFF AND ISZERO ISZERO PUSH1 0x1 EQ PUSH2 0x7C JUMPI PUSH1 0x0 DUP1 REVERT JUMPDEST PUSH1 0x0 JUMPDEST PUSH1 0x3 SLOAD DUP2 LT ISZERO PUSH2 0x130 JUMPI PUSH1 0x3 DUP2 DUP2 SLOAD DUP2 LT PUSH2 0x9C JUMPI PUSH2 0x9C PUSH2 0x133 JUMP JUMPDEST PUSH1 0x0 SWAP2 DUP3 MSTORE PUSH1 0x20 DUP3 KECCAK256 ADD SLOAD PUSH1 0x3 DUP1 SLOAD PUSH1 0x1 PUSH1 0x1 PUSH1 0xA0 SHL SUB SWAP1 SWAP3 AND SWAP3 PUSH2 0x8FC SWAP3 PUSH1 0x4 SWAP3 SWAP1 DUP7 SWAP1 DUP2 LT PUSH2 0xCF JUMPI PUSH2 0xCF PUSH2 0x133 JUMP JUMPDEST PUSH1 0x0 SWAP2 DUP3 MSTORE PUSH1 0x20 DUP1 DUP4 KECCAK256 SWAP1 SWAP2 ADD SLOAD PUSH1 0x1 PUSH1 0x1 PUSH1 0xA0 SHL SUB AND DUP4 MSTORE DUP3 ADD SWAP3 SWAP1 SWAP3 MSTORE PUSH1 0x40 SWAP1 DUP2 ADD DUP3 KECCAK256 SLOAD SWAP1 MLOAD DUP2 ISZERO SWAP1 SWAP4 MUL SWAP3 SWAP1 SWAP2 DUP2 DUP2 DUP2 DUP6 DUP9 DUP9 CALL SWAP4 POP POP POP POP ISZERO DUP1 ISZERO PUSH2 0x11D JUMPI RETURNDATASIZE PUSH1 0x0 DUP1 RETURNDATACOPY RETURNDATASIZE PUSH1 0x0 REVERT JUMPDEST POP DUP1 PUSH2 0x128 DUP2 PUSH2 0x149 JUMP JUMPDEST SWAP2 POP POP PUSH2 0x7F JUMP JUMPDEST POP JUMP JUMPDEST PUSH4 0x4E487B71 PUSH1 0xE0 SHL PUSH1 0x0 MSTORE PUSH1 0x32 PUSH1 0x4 MSTORE PUSH1 0x24 PUSH1 0x0 REVERT JUMPDEST PUSH1 0x0 PUSH1 0x0 NOT DUP3 EQ ISZERO PUSH2 0x16B JUMPI PUSH4 0x4E487B71 PUSH1 0xE0 SHL PUSH1 0x0 MSTORE PUSH1 0x11 PUSH1 0x4 MSTORE PUSH1 0x24 PUSH1 0x0 REVERT JUMPDEST POP PUSH1 0x1 ADD SWAP1 JUMP INVALID LOG2 PUSH5 0x6970667358 0x22 SLT KECCAK256 LOG2 0xB5 0x4D PUSH15 0x1A33027F2AD72585EE672EF5D47DF SWAP5 MLOAD PUSH1 0x18 0xBD DIFFICULTY MSTORE8 DUP4 0xF SWAP7 SWAP9 0xD9 SWAP9 PUSH5 0x736F6C6343 STOP ADDMOD MULMOD STOP CALLER "},"methodIdentifiers":{"hasDeceased()":"eddcca99"}}}}}