{
  "_format": "hh-sol-artifact-1",
  "contractName": "Will",
  "sourceName": "contracts/Will.sol",
  "abi": [
    {
      "inputs": [],
      "stateMutability": "payable",
      "type": "constructor"
    },
    {
      "inputs": [],
      "name": "hasDeceased",
      "outputs": [],
      "stateMutability": "nonpayable",
      "type": "function"
    }
  ],
  "bytecode": "0x6080604052600080546001600160a01b03191633179055346001556101a8806100296000396000f3fe608060405234801561001057600080fd5b506004361061002b5760003560e01c8063eddcca9914610030575b600080fd5b61003861003a565b005b6000546001600160a01b0316331461005157600080fd5b6002805460ff19166001179055610066610068565b565b60025460ff16151560011461007c57600080fd5b60005b600354811015610130576003818154811061009c5761009c610133565b6000918252602082200154600380546001600160a01b03909216926108fc9260049290869081106100cf576100cf610133565b60009182526020808320909101546001600160a01b03168352820192909252604090810182205490518115909302929091818181858888f1935050505015801561011d573d6000803e3d6000fd5b508061012881610149565b91505061007f565b50565b634e487b7160e01b600052603260045260246000fd5b600060001982141561016b57634e487b7160e01b600052601160045260246000fd5b506001019056fea2646970667358221220a2b54d6e01a33027f2ad72585ee672ef5d47df94516018bd4453830f9698d99864736f6c63430008090033",
  "linkReferences": {},
  "deployedLinkReferences": {}
}